{
  "contractName": "Humanize",
  "abi": [
    {
      "constant": true,
      "inputs": [],
      "name": "ipfsHash",
      "outputs": [
        {
          "name": "",
          "type": "string"
        }
      ],
      "payable": false,
      "stateMutability": "view",
      "type": "function"
    },
    {
      "constant": false,
      "inputs": [
        {
          "name": "x",
          "type": "string"
        }
      ],
      "name": "storeHash",
      "outputs": [],
      "payable": false,
      "stateMutability": "nonpayable",
      "type": "function"
    }
  ],
  "bytecode": "0x608060405234801561001057600080fd5b506102d3806100206000396000f30060806040526004361061004c576000357c0100000000000000000000000000000000000000000000000000000000900463ffffffff16806371dc61cb14610051578063c623674f146100ba575b600080fd5b34801561005d57600080fd5b506100b8600480360381019080803590602001908201803590602001908080601f016020809104026020016040519081016040528093929190818152602001838380828437820191505050505050919291929050505061014a565b005b3480156100c657600080fd5b506100cf610164565b6040518080602001828103825283818151815260200191508051906020019080838360005b8381101561010f5780820151818401526020810190506100f4565b50505050905090810190601f16801561013c5780820380516001836020036101000a031916815260200191505b509250505060405180910390f35b8060009080519060200190610160929190610202565b5050565b60008054600181600116156101000203166002900480601f0160208091040260200160405190810160405280929190818152602001828054600181600116156101000203166002900480156101fa5780601f106101cf576101008083540402835291602001916101fa565b820191906000526020600020905b8154815290600101906020018083116101dd57829003601f168201915b505050505081565b828054600181600116156101000203166002900490600052602060002090601f016020900481019282601f1061024357805160ff1916838001178555610271565b82800160010185558215610271579182015b82811115610270578251825591602001919060010190610255565b5b50905061027e9190610282565b5090565b6102a491905b808211156102a0576000816000905550600101610288565b5090565b905600a165627a7a72305820c1ac2d80ee7cc4cf818f8e7cd4d0c9a4512a3be1b1e4f405ea992a527de4cf4d0029",
  "source": "pragma solidity ^0.4.24;\n\n/** @title The Humanize Project Smart Contract */\n/*\nActs as the bridge between the web application, IPFS,\nand the Ethereum blockchain.\nHandles the logic of storing and returning the IPFS hash\nof each media file on the blockchain.\n*/\ncontract Humanize {\n\n // string variable holding the IPFS hash on the blockchain\n string public ipfsHash;\n\n /** @dev Stores the IPFS hash returned from\n     adding a file on the IPFS network into ipfsHash.\n   * @param x The hash returned from the IPFS network.\n   */\n function storeHash(string x) public {\n   ipfsHash = x;\n }\n\n}\n",
  "sourcePath": "/Users/Des1derata/Desktop/Code/Humanize-Final/contracts/Humanize.sol",
  "compiler": {
    "name": "solc",
    "version": "0.4.24+commit.e67f0147.Emscripten.clang"
  },
  "schemaVersion": "2.0.1",
  "updatedAt": "2018-08-25T23:39:09.004Z"
}